:020000040800F2
:100000003C3A002005360008053000080F30000893
:1000100019300008233000082D300008429FFEAF41
:10002000000000000000000000000000A12D0008FA
:100030003730000800000000392E0008D5160008EF
:10004000F3350008E1350008CF350008BD3500085C
:10005000AB3500089935000887350008753500086C
:1000600063350008513500083F350008FD360008AB
:10007000E7360008D1360008BB360008A536000870
:100080008F360008793600082D3500081B3500082A
:1000900009350008F7340008E5340008D3340008B7
:1000A000C1340008AF3400089D3400088B340008C8
:1000B00079340008673400085534000843340008D8
:1000C000313400081F3400080D340008FB330008E9
:1000D000E9330008D7330008C5330008B3330008FC
:1000E000A13300088F3300087D3300086B3300080C
:1000F0005933000847330008353300084130000801
:100100002333000811330008FF320008ED320008E5
:10011000DB320008C9320008B7320008A5320008F7
:1001200093320008813200086F3200085D32000807
:100130004B32000839320008273200081532000817
:1001400003320008F1310008DF310008CD3100082A
:10015000BB310008A931000897310008853100083B
:1001600073310008613100084F3100083D3100084B
:100170002B3100081931000807310008F53000085C
:10018000E3300008D1300008BF300008AD3000086F
:100190009B3000088930000877300008653000087F
:1001A0001915000853300008811500087047A0F1A8
:1001B0000400FBE7704710B5044610210EF08EFBDB
:1001C000204610BDA0F10400F5E700000022C16048
:1001D0008260044A10B502F10804203204604260D3
:1001E00010BD00BFD4ED00087047704770477047DE
:1001F0007047704710B5044600F0DEF8014B20460A
:10020000236010BD38EE0008044B10B504460360AF
:1002100000F5DE7008F0C0FC204610BD04EE0008BA
:1002200010B50446FFF7F0FF4FF4527120460EF070
:1002300055FB204610BD0000034B10B5044603607B
:10024000FFF7E2FF204610BD38EE000810B5044667
:10025000FFF7F2FF4FF4527120460EF03FFB2046AD
:1002600010BD00220260704770477047704710B59C
:1002700004464FF4A8710EF031FB204610BD10B5B6
:100280000446D0F84C01FFF7EFFF2046BDE81040D0
:100290000AF0C0B810B50446D0F8340158B103686C
:1002A000DB68984738B1D4F8340103689B689847F5
:1002B0000023C4F8343110BD10B5044600F03CFAF8
:1002C000014B2046236010BD6CEE000870B51E4641
:1002D00003680446BDF910505B6B984723683146AC
:1002E00020469A6B9047236829462046DB6BBDE881
:1002F0007040184781807047C180704770B50368AF
:1003000004461546DB6A98472368294620461B6B3E
:10031000BDE87040184701817047418170477047C0
:100320007047704770477047C388D21A8388C91ACC
:10033000036812B209B210B45DF8044B5B6D184744
:100340004FF6FF738381038443841368C361106095
:10035000704790F825201AB190F8242002B1186057
:100360007047012070470000094A02600022828025
:10037000C280028142818281C281028242824261C4
:100380008261C26180F82420012280F82520704714
:10039000C009010810B50446FFF7E6FF054B2046EB
:1003A0002360FF2384F826300023A36284F82C30D6
:1003B00010BD00BFB80101082DE9F04F044691B00F
:1003C00000250BF009FB2246BB4BE56304F5C8781A
:1003D00042F8403B10460692FFF7DCFF04F1700341
:1003E00004F5DE79DFF8D4A24FF6FF7618460793BE
:1003F000FFF7D0FF04F1A003DFF8C4B2FF271846CF
:10040000039307F0F5FA04F5B07318460893FFF765
:10041000C1FF4046FFF7A8FFC4F890A1C4F8B85147
:10042000484608F00BFC04F5F47318460493FFF7F4
:100430009BFF04F50773C4F8E8B1A4F80E621846F0
:10044000C4F81052A4F8145284F8166284F81752B3
:1004500084F8185284F819520593FFF785FF04F5C4
:100460001473C4F81CB2A4F842624FF0020BC4F833
:1004700044521846A4F8485284F84A624FF48876E9
:1004800084F84B5284F84C5284F84D52099309F089
:100490001BF804F5237318460A93FFF77BFF04F556
:1004A0002F7318460B93FFF75FFF04F53A73C4F8F8
:1004B000BCA24FF0600AC4F8E45218460C93FFF750
:1004C00069FF04F5467318460D93FFF763FF4FF479
:1004D000F0732A46294606980096FFF7F7FE3A463B
:1004E000394638460BF010FFF023A0662A4629460D
:1004F00007980096FFF7EAFE3A46394638460BF071
:1005000003FFF023C4F898002A4629460398009672
:10051000FFF7DCFE2A4684F84C51294628460BF0AA
:10052000F3FE0146039807F056FEC0232A460898BA
:100530000096F021FFF7CAFE2A46294638460BF0FE
:10054000E3FE2A46C4F88801C02340460096F02105
:10055000FFF7BCFE10A9484621F804BD08F02AFBAD
:100560002A465F234846CDF800A00121FFF7AEFEE2
:100570002946484608F011FB4946404606F00EFE63
:100580005F232A4651460498CDF800A0FFF79EFE4F
:100590002A46294628460BF0B7FEA4F81452C4F8A0
:1005A00010022946049808F053FE0499404606F0CC
:1005B000F5FDB0235246059800930121BE23FFF7B5
:1005C00085FE2A46294628460BF09EFEA4F848528E
:1005D000C4F844024FF00101059808F039FE05996E
:1005E000404606F0DBFD3C23D42209980093842189
:1005F000FFF76CFE0999404606F0D0FD30232A46ED
:100600000A9800964FF4D871FFF760FE3A463946D3
:1006100038460BF079FE2A46C4F8B40230230B9812
:100620004FF4D8710096FFF751FE5B462A460C98AE
:100630000096EF21FFF74AFE2A46294628460BF08E
:1006400063FE5B46C4F810032A460D9840F2AF11D2
:100650000096FFF73BFE2A4629462846251D0BF04B
:1006600053FE0699C4F84003284606F097FD079903
:10067000284606F093FD0399284606F08FFD089959
:10068000284606F08BFD4146284606F087FD0A996C
:10069000284606F083FD0B99284606F07FFD0C994D
:1006A000284606F07BFD28460D9906F077FD20468A
:1006B00011B0BDE8F08F00BF04EE0008BCF80008E0
:1006C0000C010108704770474160704770477047E0
:1006D0000123037270477047C268836812F0010FEC
:1006E00040684FEA620218BF8158104418BFCB58C7
:1006F000184743682BB183682BB9C06800F001002C
:100700007047184670470120704710B504460C2109
:100710000EF0E4F8204610BD10B504464FF4A87161
:100720000EF0DCF8204610BD10B5044610210EF086
:10073000D5F8204610BD000070B504460D4616469B
:100740000AF00EF80C4B0020C4F848611C600B4BFB
:10075000C4F8300123600A4BC4F83401C4F83C01EA
:10076000C4F84001C4F84401C4F83831C4F84C510D
:1007700000F0B2F9204670BD64320020C0EE0008DF
:10078000A8EE0008064BC0F83C01C0F84031002339
:10079000C0F8443100F59C73C0F83431704700BF95
:1007A000E50800082DE9F047074690689946884615
:1007B00003681446DDF820A01B6A9847B0F5527F05
:1007C00005D2424BBD21424A424800F063FA6068BC
:1007D00003681B6A98470F2803D83F4BBE213C4A49
:1007E000F2E7E06803681B6A98470B2803D83B4B85
:1007F000BF21374AE8E709F049FF09F094FFD9F82B
:10080000000010B10368DB689847D9F8000010B108
:1008100003681B689847386810B103685B6998479C
:10082000D8F8000010B103685B689847386810B1C9
:1008300003681B689847D8F8000010B103689B68EC
:100840009847E068002103685B6A9847054620B135
:10085000002343600372224B0360A06800210368F9
:100860005B6A9847064608B1FFF7C4FC6068002140
:1008700003685B6A9847044610B13146FFF7A6FC4F
:10088000C9F80050C8F800403E60ECB1231DCAF81A
:1008900000303046C4F808A03368F463DB6898473A
:1008A000236820461B689847294630460BF0F6F926
:1008B0002B6828461B69984709F0E8FE03689B6A85
:1008C00098472046BDE8F0872346E0E714EF00088C
:1008D0001BF10008A2EF0008D5EF000878F000082F
:1008E000FCEE000807B5D0F84C3100F59871009384
:1008F000044BD0F848210448FFF754FF03B05DF8DB
:1009000004FB00BF603200205C3200207047000012
:1009100030B5154D89B02C78BFF35B8F14F001040E
:100920001ED1284600F09DF9D0B13F2306220F4981
:1009300006930F4B079405930E4B039404930423E3
:1009400002940D488DE80C00112214230BF008FAD4
:10095000284600F087F9094A094907480DF0B8FF11
:10096000054809B030BD00BF98080020A81801084C
:10097000901801084C110108A4080020300900203B
:100980000D09000830B5144D89B02C78BFF35B8F8A
:1009900014F001041DD1284600F063F9C8B13F23CB
:1009A00001220E4906930E4B079405930D4B0394B9
:1009B00004930423029401930A2300940A480BF041
:1009C000CFF9284600F04EF9084A094906480DF0CB
:1009D0007FFF054809B030BD9C0800209818010829
:1009E0004811010898190108C408002030090020A6
:1009F0000D09000830B5144D89B02C78BFF35B8F1A
:100A000014F001041CD1284600F02BF9C0B13F239B
:100A100004220E4906930E4B019205930D4B079449
:100A2000049328230394029400940B480BF098F944
:100A3000284600F017F9094A094907480DF048FF10
:100A4000054809B030BD00BFA0080020AC1901085E
:100A50009418010860150108E408002030090020FE
:100A60000D09000810B5044620210DF037FF20467F
:100A700010BD7047012906D003D3022905D00020FC
:100A80007047FFF745BFFFF7B5BFFFF77BBF10B556
:100A9000044604210DF022FF204610BD0048704797
:100AA00034F2000803207047004870473C1A0108E0
:100AB00002207047004870470409002010B5054C1B
:100AC000FFF726FF2060FFF795FF6060FFF75AFFF2
:100AD000A06010BD0409002038B50A4B0A4A1880EE
:100AE0000A4B1A60FFF7E0FF0546FFF7E3FF0446F5
:100AF000FFF7DEFF064B1D60064B1C60064B18809F
:100B000038BD00BF20090020E41901082409002095
:100B1000803200208832002084320020014A024BBB
:100B20001A607047E41901082409002008B501463D
:100B3000034B00B10121186807F0ECFE012008BD4D
:100B40000832002003220021012008B501F06AF9D3
:100B5000074A106020B100231A46194601F08EF9A9
:100B600001210022084601F05DF9024B186008BD22
:100B7000280900202C090020002303484FF0FF32F1
:100B80001946006801F0D8BA28090020002303485C
:100B90001A461946006801F071B900BF2809002003
:100BA000002303481A461946006801F0C5BA00BF81
:100BB0002809002007B5002302A941F8043D084B8D
:100BC000186801F06EFA019B3BB14FF08052054B63
:100BD0001A60BFF34F8FBFF36F8F03B05DF804FB54
:100BE0002809002004ED00E00B4B07B5186880B120
:100BF000002302AA094942F8043D01F0EBF9019BE8
:100C00003BB14FF08052064B1A60BFF34F8FBFF3DA
:100C10006F8F03B05DF804FB2C090020100000204A
:100C200004ED00E070B50023074D084C1A46294634
:100C3000206801F081FA2946206800234FF0FF3236
:100C4000BDE8704001F078BA100000202C090020A7
:100C5000FEE7FEE70149002001F0FABD2D0B000878
:100C6000704770477047FEE710F00303074918BF4D
:100C7000C3F104030A6818BFC0181318044883425C
:100C80003ABF10460B604FF0FF3070471400002051
:100C900034360020FEE70000024B18680368DB686A
:100CA000184700BF083200201FB500F051FD00F0CA
:100CB0000DFF002303220649039302930193009240
:100CC00040F2B632034801F016FC01F037FCFEE7B3
:100CD00070F20008990C0008406870474160704746
:100CE000521A02EB5302B2FBF3F07047024B1B683F
:100CF000586A00EB4000704734090020704700003C
:100D00000F4B13B51A6C0F4C42F0010220461A64C7
:100D10004FF0FF321B6CE26003F0010301934FF0D0
:100D20008043236000232361A36063600123636128
:100D300005F0CAFC204605F056FC02B010BD00BF0D
:100D4000003802403409002010B504460C210DF093
:100D5000C5FD204610BD10B5036804461B6931B1BE
:100D60009847A26863689B1A1844606010BD984752
:100D7000A06010BD704738B5044602F011FE05466C
:100D800002F01AFE81B2A8B203F086F808B9012376
:100D9000237138BD10B5044608210DF09FFD204693
:100DA00010BD70B504798CB00E4615465CB101A833
:100DB00003F0CAF89DF8043043B1BDF81030336039
:100DC000BDF806302B6020460CB070BD1C46FAE71B
:100DD00003681B6C184703685B6A1847134A0023B3
:100DE000F0B5C2F88430BFF34F8FD2F8803043F6AD
:100DF000E076C3F3C904C3F34E33A5075B0103EAEE
:100E0000060E284621464EEA0007013900F140400F
:100E1000C2F874724F1CF6D1203B13F1200FEED1B3
:100E2000BFF34F8FBFF36F8FF0BD00BF00ED00E049
:100E300070470000034B044A13601A6842F40072C2
:100E40001A60704700B0024070090020034B40F266
:100E5000EF101B78002B18BF00207047B00900204E
:100E600010B5044640F6A8210DF038FD204610BD0F
:100E70002DE9F3470E6880460C46202E00F0A58031
:100E8000402E00F0A280321F57425741802E00F0C2
:100E90009E80A6F580735E425E415F4B1B6898683A
:100EA00003681B6A984723688246402B00F0A380A2
:100EB00000F28F80042B00F09780202B00F09B80A5
:100EC000BAF1100F4FF000050CBF4FF002094FF0C0
:100ED0000109E3894FF08062A8F8A43ADFF8448161
:100EE0004E4B4046C3F8882003F0BEFEA289638AB9
:100EF000BAF1100FC8F804504546A3EB020308BF2F
:100F00004FF00208C5F82C9018BF4FF00108EB60B5
:100F10002846238AA289C5F808809B1AAB62404BF9
:100F20002B6003F0D2FD0FB9002E35D0237EFF2BAE
:100F300017BF022300232B63237E0CBF2B636B633D
:100F400006B3BAF1100F207E63695AD103F01F0275
:100F50004FF01F0EC3F3C421C3F34513C2EB0222AB
:100F6000C1EB0121C3EB032392FBFEF291FBFEF1E7
:100F700042EA006242EA01423F2193FBF1F342EA76
:100F800003236B63638A0021A28926489B1AC5F854
:100F90001C80AB6103F09EFE0121224803F09AFE03
:100FA0004FF080621D4B9A60FFF718FFE289A3891A
:100FB00007B94EB30093A368019261681A461948B5
:100FC00003F0D1FD02B0BDE8F087012761E70126FB
:100FD00063E7802B12D0B3F5807F7FF471AF4FF0C1
:100FE00009094FF4003574E710280CBF4FF00209CF
:100FF0004FF00109F5E74FF00009F2E74FF00A0959
:10100000EFE743EA0063BCE700926168A268054825
:1010100003F08AFDD6E700BF0832002000E100E0BF
:1010200000B00240700900203B4B2DE9F0411B68E5
:1010300006460C468AB0986803681B6A9847E3899D
:1010400010280746A6F8A43A23680CBF4FF0020800
:101050004FF00108082B0ED103AD0FCC0FC594E85B
:101060000700336885E807005B6C03A930469847A2
:101070000AB0BDE8F081294D4FF08062284B284628
:10108000C3F8882003F0F0FD4FF44033A289102FFD
:101090006B60638AC5F80880A3EB0203C5F82C8057
:1010A000EB604FF00003AB621E4B217E2B60636947
:1010B0002FD103F01F021F20C2EB022292FBF0F59A
:1010C000C3F3C42245EA0165C3F34513C2EB022210
:1010D000C3EB032392FBF0F245EA02453F2293FB68
:1010E000F2F345EA03250D4803F0EFFC01210B481C
:1010F00003F0F0FD4FF08062094B9A60FFF76EFE3F
:10110000E289A389294600920448A26803F00CFDF5
:10111000AEE743EA0165E6E70832002070090020E7
:1011200000E100E000B002402DE9F843424B0D46DB
:10113000B1F80C801B68CF8998680E7E03681B6A23
:10114000984710282A7E6B6972D103F01F041F2173
:10115000C4EB042494FBF1F444EA0262C3F3C42414
:10116000C3F34513C4EB0424C3EB032394FBF1F452
:1011700042EA04443F2293FBF2F344EA0322DFF8FD
:10118000C0904FF0806CDFF8BCE0022300243F21C8
:10119000CEF888C022F07F4289F8393007EB084743
:1011A000D9F8003010281C60D9F8003099601C6113
:1011B0009C61DC615C625C63A968D9601F491C6149
:1011C00041EA0661D96108BF02211A6218BF0121F4
:1011D0005F64AA685A616A8AA2EB08029A614FF0BA
:1011E0007F4292FAA2F2B2FA82F296400E435E6217
:1011F0005A69DA639A691A645A6A5A63CEF808C05F
:10120000FFF7ECFDD9F80020136823F4403343F4D2
:1012100000331360D9F80020136843F40C531360B3
:10122000D9F80020136843F001031360BDE8F88388
:1012300043EA0262A3E700BF083200200900010070
:101240007009002000E100E070B5044600250C3074
:101250000F4B2646257260606022657246F8203B7F
:10126000314607F081FC04F52A6275611C36B242F2
:10127000FBD194F8A72A2046C4F8A05A65F30002CF
:10128000A4F8A45A84F8A65A84F8A72A70BD00BF0F
:10129000C0F20008012380F8641080F865307047C0
:1012A000406803681B68184700207047436B0BB108
:1012B0000846184770470000134A0023F0B5C2F8EB
:1012C0008430BFF34F8FD2F8803043F6E076C3F31B
:1012D000C904C3F34E33A5075B0103EA060E284693
:1012E00021464EEA0007013900F14040C2F874720D
:1012F0004F1CF6D1203B13F1200FEED1BFF34F8FDF
:10130000BFF36F8FF0BD00BF00ED00E0014B986AA6
:10131000704700BF84680140024B0122996243F884
:10132000602C704784680140064B586CDB6882B2C1
:10133000C3F30A0301339A42A6BFC01A80B2002049
:10134000704700BF00680140034B902283F85A2386
:1013500083F85823704700BF00E100E00849094ABC
:10136000CB680948C3F30A03013B9BB213800A69A7
:10137000C2F30A02013A02800B6401234B637047F7
:1013800000680140B4090020B2090020044B4FF06E
:101390008072C3F888204FF08062C3F888207047BD
:1013A00000E100E0034B4FF080729A604FF08062E2
:1013B0009A60704700E100E0704708B506F016FF3C
:1013C000BDE80840FFF778BF10B5044607F088FA7B
:1013D00023682046DB6FBDE81040184708B531B9D7
:1013E0000A4B40F2E7210A4A0A48FFF753FCC2635E
:1013F0000032816318BF01220364074900330A7079
:1014000018BF0123054A137008BD00BF25F300086B
:1014100088F400085DF3000806320020073200203F
:10142000F8B5541E9DF81850A6B21F2E09D80124F5
:10143000154FB440154E14F0803F09D114F00B0F36
:1014400017D1134B40F2BF21124A1348FFF722FC79
:101450003F88D20834887C43624381637BB1114466
:10146000C16375B1114401640C4A13700C4B1D70BB
:10147000F8BD3C88624334880732D210ECE7C3637E
:10148000EFE70564F0E700BFFC310020FE310020EB
:1014900008F3000834F400085DF300080632002069
:1014A0000732002006F09CBE10B5044668210DF0FE
:1014B00015FA204610BD000030B590F8642090F871
:1014C00030309A420F4B1A780DD05AB90E4A0F4954
:1014D00014880F480C8001880E4D1180012229804C
:1014E00004801A7030BD002AFCD00948074A0188E0
:1014F000084D1180044A1488118000222C80048039
:10150000EFE700BF00320020FC3100200232002053
:10151000FE31002004320020154B10B59A6BD20723
:1015200024D50122134CDA63134A196C12889142B4
:1015300012D1124A12881A64226892F85630013386
:1015400082F85630FFF750FB206807F0C9F90020F9
:10155000BDE8104000F044BB1A64002000F04AFBD4
:1015600020680368BDE810409B69184710BD00BFA4
:101570000068014008320020B4090020B2090020B0
:10158000084B10B55A6892070BD502229A60FFF7F4
:1015900093FE054B1B6858680368BDE810405B6903
:1015A000184710BD00B002400832002070470120EB
:1015B00070470C2070470C2303FB01000830704774
:1015C0000C2303FB010008307047012070474FF4E3
:1015D000527070474FF4527303FB0100083070479C
:1015E0004FF4527303FB010008307047012070472D
:1015F0001020704700EB01100830704700EB01101D
:10160000083070470846FFF7BDB80000034B10B51F
:101610000446036005F016FD204610BD48F500089D
:1016200010B50446FFF7F2FF142120460DF056F9DD
:10163000204610BD034B10B50446036005F002FDC3
:10164000204610BD14F5000810B50446FFF7F2FF60
:101650004FF4547120460DF041F9204610BD0000B2
:10166000034B10B50446036005F0ECFC204610BDAA
:10167000E0F4000810B50446FFF7F2FF18212046F9
:101680000DF02CF9204610BD084B10B50446036040
:1016900000F55F70FFF7BAFF04F12C00FFF7CAFFF7
:1016A00004F11400FFF7DCFF204610BD7CF50008B4
:1016B00010B50446FFF7E8FF40F2E44120460DF084
:1016C0000DF9204610BD10B5044604210DF006F9B1
:1016D000204610BD08B502F0E9FF044B1B781BB192
:1016E000BDE8084001F0DABB08BD00BFC919002001
:1016F00010B5012392B0022406934FF4803306A85C
:101700000C9407934FF4800310940D9319230E93B8
:101710004FF4C8730F930823119304F0D9F800B164
:10172000FEE704F09DF800B1FEE70F2303900621C9
:1017300001A801934FF4A053029404934FF48053F3
:10174000059304F09DFA00B1FEE712B010BD000051
:101750002DE9F04300258FB002F096FF604CFFF7B3
:10176000C7FF02F0C5FD02F009FD5C2003F010F890
:1017700002F054FB02F0F8F9019502F011F903951B
:10178000029002F019F94FF04043049007950A9334
:10179000FF238DF8345006938DF835508DF8365070
:1017A00002F0FEF80B9002F007F902232A4601A985
:1017B0000C9005934FF480634A48089305230993DE
:1017C00004F022F802F004F900F0FCF9C4F88450A7
:1017D000BFF34F8FD4F8803043F6E076C3F3C900EF
:1017E000C3F34E3385075B0103EA060E2946024622
:1017F0004EEA0107013A01F14041C4F86072571CFA
:10180000F6D1203B13F1200FEED1BFF34F8F636968
:1018100043F480336361BFF34F8FBFF36F8FBFF328
:101820004F8FBFF36F8F0025C4F85052636943F4A4
:1018300000336361BFF34F8FBFF36F8F636A4FF065
:101840000108294E032723F480334FF0104901A8E3
:101850006362736823F0010373601B238DF80480B7
:101860008DF80C300223CDF808908DF805308DF8F6
:101870000F708DF813508DF812508DF811508DF8AF
:101880000E508DF80D508DF8105002F0A5FF172363
:1018900001A88DF804808DF80C30CDF808908DF8F3
:1018A0000F708DF813508DF812808DF811508DF84F
:1018B00005708DF80E508DF80D508DF8105002F017
:1018C0008BFF052343F2D2027360636A43F48033D3
:1018D00063624FF020431A600FB0BDE8F08300BF91
:1018E00000ED00E0E832002090ED00E02DE9F74344
:1018F000614E80468946174635781C46BFF35B8F9C
:1019000015F0010556D13046FFF7ABF9002851D04C
:10191000A3B20122594CBDF8280084F8452084F870
:101920004620834284F8542084F85720544AC4F84F
:101930000480C4F80890E7602561656125836583AC
:10194000A583E58325846584A58484F82650A56253
:10195000A5856563A563E563256484F8445084F830
:10196000555084F8565084F8585084F8595084F8EB
:101970005A5084F85B5084F85C5025661460414AE4
:1019800084F865501380404A1080404A1570404AE0
:101990001380ACBF002301233E4A84F830303E4B15
:1019A000108030462360FFF75DF93C4A20463C49F1
:1019B0000CF08EFF314806F0DBFD3A4FFFF76EF872
:1019C0000446FFF76FF80D9B01460B9A00932046E3
:1019D0000C9B0AF087FD344B344A00201A60FFF755
:1019E0007BF833480AF0E8FC3B78BFF35B8FDB07FA
:1019F00038D43846FFF735F9002833D02D4E2E4B1A
:101A000006F5647806F1140006F12C0506F55F74FE
:101A10007060B560F460C6F81080336005F014FBA8
:101A2000264B2846736105F00FFB254B2046F362D9
:101A300005F00AFB234B324606F59C61C6F87C3361
:101A40004046FEF739FC06F59C60FEF70AFC40466E
:101A5000FEF798FE3846FFF705F9104A1A49304656
:101A60000CF036FF08F012FE0146044806F0C2FCF6
:101A7000024803B0BDE8F083B8090020BC0900208B
:101A800008320020FC310020FE310020003200200E
:101A9000023200200432002098F3000830090020B0
:101AA000B9130008240A00208C320020C819002035
:101AB00018000020280A00207CF50008E0F4000847
:101AC00014F5000848F5000889160008F0B54FF431
:101AD000887385B00026144A00934FF4F073039680
:101AE00001250296019611491148FFF7FFFE114B9F
:101AF000044610221D704FF0404103680095DF6ED0
:101B00002B46B84784F8586084F8466002230A4E92
:101B100084F85430304684F84550FFF7F1F82661D8
:101B200084F85C5005B0F0BD0C0F00201C000020B4
:101B3000140F0020C9190020BC19002038B5144C1E
:101B4000144D2246144915480CF0C2FE2846FFF7F2
:101B50007BFB2246124928460CF0BAFE00251148AC
:101B60002246114B1149036005710CF0B1FE10487B
:101B70002246104B45601049856003600CF0A8FEBA
:101B800022460E490E48BDE838400CF0A1BE00BF09
:101B900030090020140F0020730A000818000020EC
:101BA000310E00080C0F0020A8F20008750D000887
:101BB000BC19002080F20008FD0C0008AD150008DB
:101BC0001C00002008B5002001F07EFE034B002021
:101BD0001870BDE8084001F0A5BE00BFCA1900207A
:101BE000012804D1024B1870002001F091BE70470B
:101BF000CA190020012804D10020024B187001F0FE
:101C000091BE7047CA190020012802D1002001F0BE
:101C100093BE704700F108034FF0FF324360C3608A
:101C200003610023826003607047002303617047F3
:101C300043684B609A688A609A685160996008614D
:101C400003680133036070470A68531C30B50AD13A
:101C500003695A684A6091608B6059600861036843
:101C60000133036030BD00F108035C682568AA42B7
:101C7000EFD32346F9E7426881680369916082687F
:101C8000416851605A68904204BF82685A600022DD
:101C90000261186801381860704738B51546026C43
:101CA00004465AB905680DB1002003E0406800F011
:101CB00061FF6560A36B0133A36338BD65B98068BC
:101CC0000CF048FEA368226C134462689342A36040
:101CD000EAD32368A360E7E7C0680CF03BFE236CFF
:101CE000E2685B4221681A448A42E2603EBF626851
:101CF0009B18E360022DD7D1A36B002BD4D0A36B2C
:101D0000013BA363D0E7034608461A6C10B462B1E6
:101D1000D9685C681144A142D9605DF8044B24BFC6
:101D20001968D960D9680CF015BE5DF8044B70478E
:101D300038B5044601F044F804F12405A36C002BE7
:101D400012DC4FF0FF3304F11005A36401F05EF8DC
:101D500001F036F8636C002B13DC4FF0FF33636443
:101D6000BDE8384001F052B8636A002BE9D028463C
:101D700000F022FE08B100F0B1FEA36C013BA364A9
:101D8000DCE72369002BE8D0284600F015FE08B1F7
:101D900000F0A4FE636C013B6364DBE74FF4A073C7
:101DA00072B683F31188BFF36F8FBFF34F8F62B6A4
:101DB000FEE7000038B50D46044608B9FFF7EEFF10
:101DC00000F0FEFF206CE36B22684343A260D11851
:101DD0001B1A134461600021E3604FF0FF33A163DD
:101DE0006364A3649DB923696BB104F1100000F032
:101DF000E3FD012807D14FF08052094B1A60BFF371
:101E00004F8FBFF36F8F01F001F8012038BD04F14F
:101E10001000FFF7FFFE04F12400FFF7FBFEF2E7DE
:101E200004ED00E0F8B50D461746064650B94FF4EC
:101E3000A07372B683F31188BFF36F8FBFF34F8F18
:101E400062B6FEE791B148430130543000F0E2FE43
:101E5000044688B165B92060E66301212564204607
:101E6000FFF7A8FF84F850702046F8BD0846ECE75D
:101E700000F154030360EFE7FFF790FF2DE9FF4700
:101E8000894601921F46044650B94FF4A07372B6BA
:101E900083F31188BFF36F8FBFF34F8F62B6FEE7F6
:101EA00000297ED1036C002B7BD04FF4A07372B657
:101EB00083F31188BFF36F8FBFF34F8F62B6FEE7D6
:101EC000002859D100F0A2FF012004B0BDE8F0873E
:101ED000019D1DB900F09AFF0020F6E716B902A88F
:101EE00000F0AEFD00F092FF00F05EFB00F068FF36
:101EF000636C013301D1C4F84480A36C013301D178
:101F0000C4F8488000F082FF01A902A800F0A8FDF3
:101F1000002840D100F054FFA66BE56B00F076FF7F
:101F2000AE4232D1019904F1100000F00BFD2046C1
:101F3000FFF7FEFE00F0D6FB38B94FF08053CAF829
:101F40000030BFF34F8FBFF36F8F012600F038FFD3
:101F5000A26BE36B9A4201D3022FB9D13A464946AC
:101F60002046FFF79AFE636A002BA9D004F12400F3
:101F700000F022FD0128A5D14FF08052144B1A60C9
:101F8000BFF34F8FBFF36F8F9CE72046FFF7D0FE64
:101F900000F0A8FBD9E72046FFF7CAFE00F0A2FB3D
:101FA0009AE7022F02D1E36B012B05D100264FF0F7
:101FB0000008DFF81CA0C9E74FF4A07372B683F3E2
:101FC0001188BFF36F8FBFF34F8F62B6FEE700BF7C
:101FD00004ED00E02DE9F0410E4690461D46044612
:101FE00050B94FF4A07372B683F31188BFF36F8FAB
:101FF000BFF34F8F62B6FEE711BB036C03B34FF420
:10200000A07372B683F31188BFF36F8FBFF34F8F46
:1020100062B6FEE704F1240000F0CEFC002833D0C5
:10202000B8F1000F30D00120C8F8000087F3118804
:10203000BDE8F081A36C0133A36425E00020F5E73F
:10204000022D02D1E36B012B20D100F0A9FFEFF3A9
:1020500011874FF4A07372B683F31188BFF36F8FAB
:10206000BFF34F8F62B6A26BE36B9A4201D3022D8E
:10207000E4D12A4631462046FFF70FFEA36C013318
:10208000D8D1636A002BC5D10120CFE74FF4A073EC
:1020900072B683F31188BFF36F8FBFF34F8F62B6B1
:1020A000FEE7F8B50E46044650B94FF4A07372B679
:1020B00083F31188BFF36F8FBFF34F8F62B6FEE7D4
:1020C000056C55B14FF4A07372B683F31188BFF35A
:1020D0006F8FBFF34F8F62B6FEE700F061FFEFF343
:1020E00011874FF4A07372B683F31188BFF36F8F1B
:1020F000BFF34F8F62B6A26BE36B9A421AD2A36B07
:102100000133A363A36C013310D1636A0BB90120BF
:1021100009E004F1240000F04FFC0028F7D0002E65
:10212000F5D00120306087F31188F8BDA36C01332E
:10213000A364ECE72846F6E72DE9FF470E46019237
:102140009946044650B94FF4A07372B683F31188D0
:10215000BFF36F8FBFF34F8F62B6FEE719B9036C01
:10216000002B40F08A8000274FF00008DFF820A104
:1021700000F026FEA36B7BB331462046E568FFF7EF
:10218000C2FDB9F1000F18D1A36B013BA363236813
:1021900013B900F033FD60602369BBB104F1100096
:1021A00000F00AFC012811D14FF08052384B1A6020
:1021B000BFF34F8FBFF36F8F08E0636AE5602BB109
:1021C00004F1240000F0F8FB0028EDD100F01EFE21
:1021D000012004B0BDE8F087019D1DB900F016FE96
:1021E0000020F6E717B902A800F02AFC00F00EFE66
:1021F00000F0DAF900F0E4FD636C013301D1C4F8BA
:102200004480A36C013301D1C4F8488000F0FEFD86
:1022100001A902A800F024FC48BB00F0D1FDA56B89
:1022200000F0F4FDEDB9236833B900F0C9FD606832
:1022300000F05AFC00F0EAFD019904F1240000F0DE
:1022400081FB2046FFF774FD00F04CFA38B94FF0DF
:102250008053CAF80030BFF34F8FBFF36F8F012751
:1022600086E72046FFF764FD00F03CFAF7E72046DA
:10227000FFF75EFD00F036FAB2E74FF4A07372B6D6
:1022800083F31188BFF36F8FBFF34F8F62B6FEE702
:1022900004ED00E0064A13681968064B19B94FF0BF
:1022A000FF321A6070471268D268D2685268F8E745
:1022B000D0190020200000200E4B10B51A680446EB
:1022C00050600D4A1268904207D20C4A1068196893
:1022D000BDE810400431FFF7B7BC094A106819681F
:1022E0000431FFF7B1FC074B1A68944200D21C601E
:1022F00010BD00BFCC190020C01A0020D419002046
:10230000D0190020200000202DE9F84F0C9D8246B6
:102310000F4616469B46DDF8288035B9900000F040
:1023200079FC0546002800F0AA805C2000F072FCD1
:102330000446002800F0A080B6000563A5212846C9
:102340003246043E0CF0A0FB236B04F134021E4421
:102350007B1E093726F00706597802F8011B13F88F
:10236000011F09B19F42F7D1B8F1040F4FF00005EA
:10237000C14604F1040728BF4FF0040984F83D501A
:102380003846E564C4F82C90C4F84890FFF74DFC3B
:1023900004F11800FFF749FCC9F1050365655A46C9
:1023A000A3615146246130466462256584F8585023
:1023B00000F0E6FC0B9B206003B11C6000F000FD08
:1023C000354B364D1A68364E01321A602A68002A9B
:1023D00058D12C601B68012B27D13248FFF71AFC1B
:1023E0003148FFF717FC3148FFF714FCDFF8E8A08D
:1023F0002F48FFF70FFCDFF8E4902E48FFF70AFCA8
:102400005046FFF707FC4846FFF704FC2A48FFF751
:1024100001FC2A48FFF7FEFB2948FFF7FBFB294B8D
:10242000C3F800A0284BC3F80090284A2849136835
:102430000868013313602364E26A012404FA02F39A
:10244000034314200B603946164B00FB0230FFF7A4
:10245000EFFB00F0DBFC33685BB12B68DB6A98456F
:1024600007D94FF080521B4B1A60BFF34F8FBFF359
:102470006F8F2046BDE8F88F284600F029FC4FF00A
:10248000FF34F6E73368002BCFD12B68DB6A984521
:10249000CBD32C60C9E700BF3C1A0020CC19002028
:1024A000941A0020D8190020EC190020001A0020EE
:1024B000141A0020281A0020801A0020AC1A0020CC
:1024C000981A0020D0190020D4190020481A0020A2
:1024D000501A002004ED00E0541A0020681A002071
:1024E0004FF4A07372B683F31188BFF36F8FBFF3FD
:1024F0004F8F62B6FEE770B403AC70CC50B94FF4A6
:10250000A07372B683F31188BFF36F8FBFF34F8F41
:1025100062B6FEE7042C0AD94FF4A07372B683F3B7
:102520001188BFF36F8FBFF34F8F62B6FEE705963A
:102530000495039470BCFFF7E7BE00001FB50024AC
:102540004022154902942346019400941348FFF752
:10255000DBFE012812D14FF4A07372B683F3118809
:10256000BFF36F8FBFF34F8F62B60D4B18600D4BEB
:102570001C6004B0BDE8104000F0BEBC50B94FF480
:10258000A07372B683F31188BFF36F8FBFF34F8FC1
:1025900062B6FEE704B010BD9CF50008D92700081C
:1025A000941A0020C01A0020024A136801331360F5
:1025B000704700BF441A00202DE9F84F3E4B1B68BE
:1025C000002B56D13D4B1A6801321A601D68CDB9F7
:1025D0003B4B1A68126852B14FF4A07372B683F382
:1025E0001188BFF36F8FBFF34F8F62B6FEE7354A96
:1025F0001968106818601160334A1368013313605A
:10260000FFF748FE314C4FF0000B314F23689D42DD
:102610003ED3DFF8AC80DFF8C890D8F8002012680D
:1026200072BB4FF0FF32226032E006F1040A5046DE
:10263000FFF721FBB16A19B106F11800FFF71BFB88
:10264000F06A0122D9F800304FF0140E02FA00F1BE
:102650001943204BC9F8001051460EFB0030FFF71C
:10266000E7FA3868F16AC26A914228BF4FF0010B5D
:10267000D3E7194A4FF0000B13680133136011E0E0
:10268000D8F80020D268D66871688D42CDD221601A
:102690003A68104BD16A14224A439A58022A28BF3A
:1026A0004FF0010B0D4A1268002A18BF4FF0010BC2
:1026B0005846BDE8F88F00BF441A0020C01A002019
:1026C000D0190020D41900207C1A002020000020FE
:1026D000CC190020D8190020401A0020C41A00206C
:1026E000501A00202DE9F843324C236853B94FF4B7
:1026F000A07372B683F31188BFF36F8FBFF34F8F50
:1027000062B6FEE700F05CFB2368013B23602368B0
:102710002BB1002400F07AFB2046BDE8F883264B5D
:102720001B68002BF5D0254D254E1FE0EB680127D7
:10273000DC6804F1040904F11800FFF79CFA48462C
:10274000FFF799FAE26A3168142007FA02F300FBF6
:1027500002800B4349463360FFF76AFA194BE26A7D
:102760001B68DB6A9A4203D3174B1F60DFF8648053
:102770002B68002BDAD1154C2368BBB9124B1C68AF
:10278000012CC6D14FF08052114B1A60BFF34F8F0E
:10279000BFF36F8FBEE7FFF70FFF00B12E60236816
:1027A000013B23602368002BF5D1E7E7064D0126A6
:1027B000F8E700BF441A00203C1A0020801A0020CD
:1027C000501A0020CC190020C41A0020401A002002
:1027D00004ED00E0D8190020184E08B5184C236805
:1027E00073B9184B1B68012B07D94FF08052164B59
:1027F0001A60BFF34F8FBFF36F8FFEF72BFAEDE731
:10280000FFF7D2FE3568FFF76DFF002DE7D000F02F
:10281000D7FAF368DD68281DFFF72DFA0B4A136815
:10282000013B13602368013B236000F0EFFA286B43
:1028300000F04EFA284600F04BFAD0E7AC1A002020
:102840004C1A0020D819002004ED00E03C1A0020AA
:1028500038B50D4640B9054B1C6800F0B1FA256546
:10286000BDE8384000F0D2BA0446F6E7CC190020A3
:1028700008B9044B1868036D0BB108461847184691
:10288000704700BFCC19002038B5284B1A68284B78
:1028900012B101221A6038BD264C01211A6020684D
:1028A000FFF7E6FF2268236812681B6B9A4204D880
:1028B000206821683431FEF7CBF9236814221E49C1
:1028C000186B0CF017F820B1206821683431FEF73E
:1028D000BFF91A4B1B68B3FA83F3DBB21422184911
:1028E000C3F11F035A438D58881855B94FF4A0738C
:1028F00072B683F31188BFF36F8FBFF34F8F62B649
:10290000FEE7456808326D680A449542456004BF99
:102910006A684260142202FB031300215B68DB68D3
:1029200023602068BDE83840FFF7A2BF441A0020AA
:10293000C41A0020CC19002088F50008501A002085
:10294000D819002038B50D4650B94FF4A07372B6AF
:1029500083F31188BFF36F8FBFF34F8F62B6FEE72B
:10296000114C21681831FFF76FF920680430FFF728
:1029700082F940B922680D49D06A01220B68824071
:1029800023EA02030B606B1C06D12168084804315E
:10299000BDE83840FFF74CB9064B18682844BDE83D
:1029A0003840FFF789BC00BFCC190020501A002026
:1029B000981A0020C01A002038B5C368DC6854B9E2
:1029C0004FF4A07372B683F31188BFF36F8FBFF318
:1029D0004F8F62B6FEE704F118052846FFF74BF962
:1029E000114B1B68DBB9251D2846FFF744F90F4939
:1029F000E26A012308689340034314200B602946D0
:102A00000B4B00FB0230FFF713F90A4BE26A1B681D
:102A1000DB6A9A4206D90120074B186038BD294667
:102A20000648F0E7002038BD441A0020501A002064
:102A3000D8190020CC190020C41A0020801A0020C8
:102A400008B508B9FFF74CFD034B1B680360034B47
:102A50001B68436008BD00BF7C1A0020C01A00201C
:102A600038B50D46044650B94FF4A07372B683F3DF
:102A70001188BFF36F8FBFF34F8F62B6FEE751B976
:102A80004FF4A07372B683F31188BFF36F8FBFF357
:102A90004F8F62B6FEE700F093F90E4B19682B6872
:102AA0005A1C10D00C4A206812689042626801D00B
:102AB00091420DD2881A83420AD95B1A20461344E8
:102AC0002B60FFF7BDFF002400F0A0F9204638BDC1
:102AD0000124F9E7C01A00207C1A00200122014BD2
:102AE0001A607047C41A00202DE9F04104460028FE
:102AF00038D01D4DC36A2A68D26A934232D28269A5
:102B0000002A04DB2A68D26AC2F105028261174EEC
:102B10001427626907FB03639A4220D104F1040879
:102B20004046FFF7A8F8124A48B9E06A4743F3590C
:102B30002BB901211368814023EA010313602B683C
:102B40001168D86A01238340E0620B434146136059
:102B5000142303FB0060BDE8F041FFF769B82B6860
:102B6000DB6AE362BDE8F081CC190020D8190020AF
:102B7000501A0020F8B5044608B90020F8BDC36C0F
:102B800053B94FF4A07372B683F31188BFF36F8FFC
:102B9000BFF34F8F62B6FEE7C16A013B826CC3642C
:102BA0009142EAD0002BE8D1051D124E2846FFF7CE
:102BB00062F8114A50B9E76A1421794373582BB966
:102BC00001201368B84023EA00031360A36CC3F12B
:102BD0000501E362A1610124116804FA03F00843CE
:102BE00029461060142000FB0360FFF721F82046FF
:102BF000F8BD00BFD8190020501A0020044B1A68F5
:102C00001AB11968CA6C0132CA641868704700BFEB
:102C1000CC19002070B50446FFF7C6FC27480168B0
:102C200071B9274B41F27455264A23F007035160CE
:102C30001360254A83E82400012382E82200036010
:102C40002CB1083463071CBF24F007040834621E4B
:102C500041F272539A4207D81A4A136859688C4253
:102C600004D819498B4207D100251DE019680029B5
:102C7000F7D01A460B46F1E71968156811605968D4
:102C80000835091B10290AD91A1951605C600D49D1
:102C9000566808684468A6420DD810600A600B495F
:102CA0005B680A68D21A0A60FFF71CFD0DB9FDF7D0
:102CB000D0FF284670BD0146EBE700BF4C30002036
:102CC000D01A002050300020443000202400002082
:102CD00038B50446C8B1A0F10805FFF765FC54F803
:102CE000040C0A4B1A68516888420CD844F8082C26
:102CF000074A1D60116854F8043C0B441360BDE89A
:102D00003840FFF7EFBC1346ECE738BD50300020E9
:102D1000240000200C4B1B6801330AD04FF4A07331
:102D200072B683F31188BFF36F8FBFF34F8F62B614
:102D3000FEE74FF4A07372B683F31188BFF36F8F71
:102D4000BFF34F8F62B6FEE72800002006480068F8
:102D5000006880F3088862B661B6BFF34F8FBFF397
:102D60006F8F00DF00BF000008ED00E0DFF80C000F
:102D7000016841F4700101607047000088ED00E0D7
:102D80004FF0807340F8202C00E90A00034B4438D0
:102D900083636FF002030362704700BF152D0008C4
:102DA000064B19680868B0E8F04F80F30988BFF354
:102DB0006F8F4FF0000080F311887047CC1900200E
:102DC0004FF4A07372B683F31188BFF36F8FBFF314
:102DD0004F8F62B60B4A13680133012B13600FD17A
:102DE000094B1B6813F0FF0F0AD04FF4A07372B6A3
:102DF00083F31188BFF36F8FBFF34F8F62B6FEE787
:102E0000704700BF2800002004ED00E0094A136865
:102E100053B94FF4A07372B683F31188BFF36F8F69
:102E2000BFF34F8F62B6FEE7013B13600BB983F32C
:102E30001188704728000020EFF30980BFF36F8FDF
:102E4000154B1A681EF0100F08BF20ED108A20E9FC
:102E5000F04F10604DF8043D4FF4A07072B680F34F
:102E60001188BFF34F8FBFF36F8F62B6FFF70CFD72
:102E70004FF0000080F3118808BC19680868B0E8BA
:102E8000F04F1EF0100F08BFB0EC108A80F30988D5
:102E9000BFF36F8F704700BFCC19002008B5EFF368
:102EA00011834FF4A07272B682F31188BFF36F8F53
:102EB000BFF34F8F62B6FFF77FFB18B14FF0805220
:102EC000024B1A60002383F3118808BD04ED00E073
:102ED000064B4FF47A721B68B3FBF2F3044A013BD2
:102EE00013600722034B1A60704700BF5800002090
:102EF00014E000E010E000E0234B13B51A78002145
:102F0000D2B20192FF221A701B78204ADBB28DF8F0
:102F100003309DF8033003F04003137007221C4B6D
:102F20001A609DF80300541E000623D401B11A60F4
:102F30001A68120202F4E0621A60019B124ADBB2C4
:102F40001370144B1A6842F47C021A601A6842F03B
:102F50007C421A60FFF7BCFF00220F4B1A60FFF79C
:102F600005FF0E4A136843F040431360FFF7EEFE7F
:102F7000FFF7D0FE9DF8032001215200D2B28DF858
:102F800003202246CDE700BF00E400E058300020D7
:102F90005C30002020ED00E02800002034EF00E04D
:102FA000EFF305830F2B10D9124A9B5C124A12785B
:102FB0009A420AD94FF4A07372B683F31188BFF313
:102FC0006F8FBFF34F8F62B6FEE70C4B0C4A1B6846
:102FD000126803F4E06393420AD94FF4A07372B607
:102FE00083F31188BFF36F8FBFF34F8F62B6FEE795
:102FF000704700BFF0E300E0583000200CED00E027
:103000005C300020684620F007018D46FEE76846E8
:1030100020F007018D46FEE7684620F007018D4647
:10302000FEE7684620F007018D46FEE7684620F07F
:1030300007018D46FEE7684620F007018D46FEE752
:10304000684620F007018D4601B5BDE80140854680
:103050007047684620F007018D4601B5BDE8014084
:1030600085467047684620F007018D4601B5BDE8EA
:10307000014085467047684620F007018D4601B53E
:10308000BDE8014085467047684620F007018D463F
:1030900001B5BDE8014085467047684620F007014C
:1030A0008D4601B5BDE8014085467047684620F071
:1030B00007018D4601B5BDE8014085467047684669
:1030C00020F007018D4601B5BDE8014085467047F7
:1030D000684620F007018D4601B5BDE801408546F0
:1030E0007047684620F007018D4601B5BDE80140F4
:1030F00085467047684620F007018D4601B5BDE85A
:10310000014085467047684620F007018D4601B5AD
:10311000BDE8014085467047684620F007018D46AE
:1031200001B5BDE8014085467047684620F00701BB
:103130008D4601B5BDE8014085467047684620F0E0
:1031400007018D4601B5BDE80140854670476846D8
:1031500020F007018D4601B5BDE801408546704766
:10316000684620F007018D4601B5BDE8014085465F
:103170007047684620F007018D4601B5BDE8014063
:1031800085467047684620F007018D4601B5BDE8C9
:10319000014085467047684620F007018D4601B51D
:1031A000BDE8014085467047684620F007018D461E
:1031B00001B5BDE8014085467047684620F007012B
:1031C0008D4601B5BDE8014085467047684620F050
:1031D00007018D4601B5BDE8014085467047684648
:1031E00020F007018D4601B5BDE8014085467047D6
:1031F000684620F007018D4601B5BDE801408546CF
:103200007047684620F007018D4601B5BDE80140D2
:1032100085467047684620F007018D4601B5BDE838
:10322000014085467047684620F007018D4601B58C
:10323000BDE8014085467047684620F007018D468D
:1032400001B5BDE8014085467047684620F007019A
:103250008D4601B5BDE8014085467047684620F0BF
:1032600007018D4601B5BDE80140854670476846B7
:1032700020F007018D4601B5BDE801408546704745
:10328000684620F007018D4601B5BDE8014085463E
:103290007047684620F007018D4601B5BDE8014042
:1032A00085467047684620F007018D4601B5BDE8A8
:1032B000014085467047684620F007018D4601B5FC
:1032C000BDE8014085467047684620F007018D46FD
:1032D00001B5BDE8014085467047684620F007010A
:1032E0008D4601B5BDE8014085467047684620F02F
:1032F00007018D4601B5BDE8014085467047684627
:1033000020F007018D4601B5BDE8014085467047B4
:10331000684620F007018D4601B5BDE801408546AD
:103320007047684620F007018D4601B5BDE80140B1
:1033300085467047684620F007018D4601B5BDE817
:10334000014085467047684620F007018D4601B56B
:10335000BDE8014085467047684620F007018D466C
:1033600001B5BDE8014085467047684620F0070179
:103370008D4601B5BDE8014085467047684620F09E
:1033800007018D4601B5BDE8014085467047684696
:1033900020F007018D4601B5BDE801408546704724
:1033A000684620F007018D4601B5BDE8014085461D
:1033B0007047684620F007018D4601B5BDE8014021
:1033C00085467047684620F007018D4601B5BDE887
:1033D000014085467047684620F007018D4601B5DB
:1033E000BDE8014085467047684620F007018D46DC
:1033F00001B5BDE8014085467047684620F00701E9
:103400008D4601B5BDE8014085467047684620F00D
:1034100007018D4601B5BDE8014085467047684605
:1034200020F007018D4601B5BDE801408546704793
:10343000684620F007018D4601B5BDE8014085468C
:103440007047684620F007018D4601B5BDE8014090
:1034500085467047684620F007018D4601B5BDE8F6
:10346000014085467047684620F007018D4601B54A
:10347000BDE8014085467047684620F007018D464B
:1034800001B5BDE8014085467047684620F0070158
:103490008D4601B5BDE8014085467047684620F07D
:1034A00007018D4601B5BDE8014085467047684675
:1034B00020F007018D4601B5BDE801408546704703
:1034C000684620F007018D4601B5BDE801408546FC
:1034D0007047684620F007018D4601B5BDE8014000
:1034E00085467047684620F007018D4601B5BDE866
:1034F000014085467047684620F007018D4601B5BA
:10350000BDE8014085467047684620F007018D46BA
:1035100001B5BDE8014085467047684620F00701C7
:103520008D4601B5BDE8014085467047684620F0EC
:1035300007018D4601B5BDE80140854670476846E4
:1035400020F007018D4601B5BDE801408546704772
:10355000684620F007018D4601B5BDE8014085466B
:103560007047684620F007018D4601B5BDE801406F
:1035700085467047684620F007018D4601B5BDE8D5
:10358000014085467047684620F007018D4601B529
:10359000BDE8014085467047684620F007018D462A
:1035A00001B5BDE8014085467047684620F0070137
:1035B0008D4601B5BDE8014085467047684620F05C
:1035C00007018D4601B5BDE8014085467047684654
:1035D00020F007018D4601B5BDE8014085467047E2
:1035E000684620F007018D4601B5BDE801408546DB
:1035F0007047684620F007018D4601B5BDE80140DF
:10360000854670476846154A20F007018D461449E3
:1036100079B5144B8B4213D3134B0021134A9342B9
:1036200013D3134E0025134CA41BA410A5420FDB8B
:1036300003F05CFCFDF738FBBDE879408546704738
:1036400052F8040F43F8040BE4E743F8041BE6E7E1
:1036500056F8253001359847E8E700BF541A0108AD
:103660009808002000000020980800203434002032
:10367000401A0108501A0108684620F007018D46DB
:1036800001B5FFF7DDFCBDE801408546704768469F
:1036900020F007018D4601B5FFF7D2FCBDE80140DF
:1036A00085467047684620F007018D4601B5FFF753
:1036B000C7FCBDE8014085467047684620F0070119
:1036C0008D4601B5FFF7BCFCBDE80140854670475B
:1036D000684620F007018D4601B5FFF7B1FCBDE853
:1036E000014085467047684620F007018D4601B5C8
:1036F000FFF7A6FCBDE8014085467047684620F00C
:1037000007018D4601B5FFF79BFCBDE801408546EA
:103710007047000070B58AB0054601F04EFF0028E2
:1037200054D14A4B00264A4C9D42AE602E610CBFDC
:10373000484A494A9D426E612A60484AEE616A6081
:103740004FF001022E62EA60236B41D143F0800307
:1037500005A943482363236B079603F08003019375
:10376000019B8023059312230693022308930423CD
:10377000099301F005FB4FF4807305A938480593C0
:1037800001F0FEFA236C32460F21482043F4000377
:103790002364236C03F400030293029B236A43F423
:1037A00000032362236A23F40003236200F0ACFFCA
:1037B000482000F0E1FF492032460F2100F0A4FF2D
:1037C000492000F0D9FF284601F010FD0AB070BD75
:1037D00043F0020305A923482363236B079603F0F4
:1037E00002030393039B4FF4807305931223069304
:1037F000022308930423099301F0C2FA4FF40073E3
:1038000005A91848059301F0BBFA236C32460F2135
:103810001F2043F400132364236C03F40013049368
:10382000049B236A43F400132362236A23F40013E6
:10383000236200F069FF1F2000F09EFF2020324627
:103840000F2100F061FF2020BBE700BF60300020A7
:1038500000380240005C0040005400403227914094
:10386000001C02400004024030B54FF47A7485B069
:1038700005460294BDF824400194089C009401F090
:10388000DDFD044628B1284601F006FD2846FFF775
:1038900041FF204605B030BD30B54FF47A7485B095
:1038A00005460294BDF824400194089C009401F060
:1038B0000CFD044628B1284601F0EEFC2846FFF72F
:1038C00029FF204605B030BD30B5054687B0C8B9E0
:1038D0000D4B02240D48196B41F48071196301A945
:1038E0001B6B019403F480730093009B01230293EC
:1038F00003930323049301F043FA2A462146034825
:1039000001F02AFB07B030BD003802400020024021
:1039100020B901220221024801F01EBB704700BFFE
:1039200000200240024618B90221024801F014BBEF
:10393000704700BF0020024018B90221014801F081
:1039400010BB7047002002400148FFF7E3BE00BFF4
:10395000603000201FB504AC012304F8012D0A4695
:103960000146019300940248FFF796FF04B010BD92
:10397000603000201FB5002304AA02F8013D012396
:103980008DE80C000A4601460348FFF76DFF9DF8DD
:103990000F0005B05DF804FB6030002000F094BE1D
:1039A000034B3421034A1B6801FB0323186E704745
:1039B000AC300020E8320020034B3421034A1B685E
:1039C00001FB0323586E7047AC300020E832002022
:1039D00008B5094B4FF4805108481A68936943F0C1
:1039E00001039361012201F0B7FA01220821044882
:1039F000BDE8084001F0B0BAE832002000200240E3
:103A0000002802404B4B4C48F0B55A6C8FB0022452
:103A10000E2542F0806209A94FF48057474E5A6440
:103A20005A6C02F080620092009A1A6B42F4000213
:103A30001A631A6B02F400020192019A1A6B42F0A7
:103A400010021A631A6B02F010020292029A1A6BA9
:103A500042F040021A631A6B02F040020392039A8A
:103A60001A6B42F480721A631A6B02F48072049229
:103A7000049A1A6B42F400721A631A6B02F4007211
:103A80000592059A1A6B42F480621A631A6B02F46B
:103A900080620692069A1A6B42F480721A631A6B5D
:103AA00002F480720792079A1A6B42F480621A63DA
:103AB0001B6B0A9403F480630C940D950893089B88
:103AC0001023099300230B9301F05AF9092309A944
:103AD0001B480A940D93099701F052F94FF467437C
:103AE00009A930460A9409930D9501F049F94EF65B
:103AF000FF7309A9134809930A940D9501F040F941
:103B00000A94F723104C09A90D9501252046099325
:103B100001F036F909A9304609970A9501F030F904
:103B2000082309A920460A95099301F029F90FB045
:103B3000F0BD00BF003802400010024000200240EB
:103B400000180240002402400028024005480823D3
:103B50000360C02343610523C3614FF48033C36214
:103B600002F03CB9B030002010B52823224C0021CF
:103B7000636109232046A3613523E3610B2323629C
:103B800040F21B13A36240F21523636240F21D133F
:103B9000236340F23523E362FFF7D8FF4FF4F0735D
:103BA000204623664FF488736366002384F834301C
:103BB00084F8353084F836306360A360E3602361B5
:103BC0000E4B236001F049FE014610B92046FFF775
:103BD00019FF094801F09AFD01224FF4805108486D
:103BE00001F0BAF901220821064801F0B5F900F008
:103BF00015F9002010BD00BFE83200200068014028
:103C000000200240002802402DE9F743224C012603
:103C1000224D4FF000081027214681464FF6FF72D3
:103C20002846CDF80480A660C4F80C8084E8C00063
:103C300002F0AFFC304600F047FD022321464FF66C
:103C4000FF722846A660C4F80C8084E8880002F061
:103C5000A0FC032321464FF6FF722846C4F80C80CF
:103C600084E888000823A36002F093FC4FF40873F3
:103C70004FF6FF722146284601930423A66084E88C
:103C80008800019BE36002F084FC4946284602F06C
:103C900097FC03B0BDE8F08334310020903300205E
:103CA000554B70B59A6B8EB00646544842F00102EF
:103CB0000EAC00259A639A6B02F001020192019A00
:103CC0001A6B42F480021A631A6B02F480020292A9
:103CD000029A1A6B42F004021A631A6B02F0040291
:103CE0000392039A1A6B42F008021A631A6B02F0ED
:103CF00008020492049A1A6B42F010021A631A6BBB
:103D000002F010020592059A1A6B42F020021A6323
:103D10001A6B02F020020692069A1A6B42F04002D9
:103D20001A631A6B02F040020792079A1A6B42F06C
:103D300080021A6301221B6B0B9203F0800308932D
:103D4000089B02230A930C930C230D93082344F839
:103D5000143D214601F014F84CF203732146284823
:103D6000099301F00DF84FF6837321462548099316
:103D700001F006F84FF63F0321462348099300F06F
:103D8000FFFF48F2331321462048099300F0F8FF63
:103D9000282321461E481F4C099300F0F1FF802381
:103DA000256320463463A3604FF400736560E360CD
:103DB0004FF48063E56123614FF480536562636172
:103DC0004FF48043E562A3614FF40033A66323629E
:103DD0000323A362104B236000F0BAFD204600F0DD
:103DE00037FD2A460F21382000F08EFC382000F0E5
:103DF000C3FC0EB070BD00BF003802400008024096
:103E0000000C024000100240001402400018024062
:103E1000001C0240603100201064024038B51A4C8A
:103E200007211A4B04221A4D2046236002236960A1
:103E30002B602B616B61AB611023E9600021236172
:103E40004023616063614FF48073A160A3614FF40C
:103E50000063E26023624FF48053E1616362A16218
:103E6000AA60FFF71DFF2046294602F072FB094CAD
:103E700038B10123237040F20360FFF7C5FE2078BC
:103E800038BD2070F7E700BF90330020400100A04C
:103E9000443100202C0000200D4B10B518807020FC
:103EA0000C4B0D4C19802368984763687020984725
:103EB00051280BD1094B702008221C60084B187048
:103EC000084B1A70E3689847002010BD032010BD0E
:103ED000F2310020F431002030000020EC310020CD
:103EE000C0310020F031002037B5164B02A9002464
:103EF0000546187841F8044D00F05CFB019818283D
:103F000017D009D810280FD0142810D0B8B90446FB
:103F1000A862204603B030BD40280CD049280CD000
:103F20001C280CD1042300E00123AB62F1E702233B
:103F3000FBE70323F9E70523F7E70623F5E7012469
:103F4000E7E700BFC03100202DE9F04F534D95B099
:103F50000024534E2B6881460594AA460694079484
:103F60001B6930789847039689F8000078B109F109
:103F7000160509F102060DF1380811AFDFF830B16E
:103F800099F800309C4205D34846FFF7ADFF15B0C5
:103F9000BDE8F08FDAF800303A46039841465B6995
:103FA000007898473F4B0BA9DFF808C11A7808AB97
:103FB000012A01BFB8F8000023F81400388821F85E
:103FC0001400900742BFB8F80000C0F5805023F8F5
:103FD0001400500742BF3888C0F5805021F8140003
:103FE000120742BFB8F8002021F814203A8831F8AF
:103FF000141048BF23F81420A20033F814E05BF833
:10400000243052F80C009E458CBFAEEB0303A3EBAB
:104010000E0381429BB28CBF081A401A80B218442A
:10402000039B05281878C4BF4BF802E04CF8021037
:10403000702815D1A6F800E0718107AB05AA2146CA
:10404000009306AB00F0C6FA059B05F8013B069B02
:104050006B72079B032B14D8DFE803F011191B1DAB
:10406000114B19885BF802304B431B0B33800F4B0D
:1040700019885CF802304B431B0B7381DDE7012389
:104080002B710134023608F10208023778E7022367
:10409000F6E70323F4E70023F2E700BFEC3100204A
:1040A000C0310020F0310020F2310020F431002036
:1040B000C4310020D831002000B54FF4807395B092
:1040C0004FF080720C9305230F9201220693002378
:1040D000019206A90D930E930B93119312931393D0
:1040E00000930493102303926A4602934FF48003D3
:1040F00005930346044802F0A9FC003018BF0120D4
:1041000015B05DF804FB00BFC433002000B54FF4C8
:10411000807395B041F2883217480C93062306A9A4
:10412000069300230D930E930F930B931193129309
:10413000139302F048FCE0B9022304906A4606A9F2
:104140000093019301230C480393102302934FF42F
:1041500080030593052306934FF080730F9341F27C
:10416000883302F073FC003018BF012015B05DF8F1
:1041700004FB0120FAE700BFC433002000B54FF470
:10418000807391B04FF040720F480893EB230B926D
:104190000A2202934FF44063079210AA09934FF446
:1041A000005302A90593002342F8403D0A930D9362
:1041B0000E930F93019302F09EFC003018BF012074
:1041C00011B05DF804FB00BFC4330020454BF0B5CF
:1041D0009A6B8DB0444D092442F0020207A928468B
:1041E00004279A6300269A6B02F002020092009A5A
:1041F0009A6942F002029A619A6922F002029A6177
:104200001A6B42F002021A631A6B02F00202019268
:10421000019A1A6B42F002021A631A6B02F0020250
:104220000292029A1A6B42F008021A631A6B02F0A9
:1042300008020392039A1A6B42F008021A631A6B7F
:1042400002F008020492049A1A6B42F010021A63F8
:104250001A6B02F010020592059A1A6B42F00802DE
:104260001A631B6B03F008030693069B4023079316
:10427000022308930123099303230A930A230B9330
:1042800000F07EFD07A92846079709960B9400F0D9
:1042900077FD4FF4006307A90B941D44079328464C
:1042A00000F06EFD4FF4805307A9284607930B9446
:1042B00000F066FD07A90D4807970B9400F060FD1C
:1042C0004FF4005307A928460B94079300F058FDBC
:1042D00032460F215C2000F017FA5C2000F04CFA07
:1042E0000DB0F0BD00380240000402400010024052
:1042F0002DE9F041494C90B0494B2046236002F033
:1043000046FB054600283ED101462046FFF75EFFEA
:10431000042301264FF08077A36010236660E360DA
:1043200097FAA7F3B3FA83F34FF480782046A56198
:10433000013BC4F81480E5612361256202F0C8FAEC
:1043400008BB662309900A9041F288320B9002A9BB
:1043500007900D900E900F902046CDF8208002938C
:1043600002F031FB68B9992341F2883202A9204654
:10437000029302F028FB20B941F28830FFF79CFE3F
:1043800018B1042545E0012543E0852309900A90F2
:1043900041F28832079002A90D900E900F902046AE
:1043A000CDF8208002930B970C9602F00CFB0028AE
:1043B000E7D141F288320DF10701204602F07DFC81
:1043C0000028DED1FFF7A2FE05460028D9D18123BF
:1043D000F022029392FAA2F20A219DF80730B2FA73
:1043E00082F2204603F00F0301FA02F202A91343FE
:1043F00041F288328DF8073002F0E5FA0028C0D18A
:1044000041F288320DF10701204602F0F4FB00284A
:10441000B7D1284610B0BDE8F08100BFC4330020FA
:10442000001000A0002070477047000037B500233F
:104430000F4C05468DF8073023781BB9FFF784FA37
:10444000012323700324EDB2013CA8212846FFF785
:1044500091FA14F0FF048DF807009DF80730DBB2E5
:1044600003D19DF8070003B030BD512BECD1F8E724
:10447000F831002013B500240221C0B28DF80740A6
:10448000FFF778FA8DF807009DF8073003F00F0367
:104490008DF807309DF80730052B01D98DF80740BE
:1044A0009DF80720034B9DF807005A7000229A7070
:1044B00002B010BDF83100202DE9F74F294D92468A
:1044C00000240E46AB786A788DF807409A4241D9AD
:1044D000092B42D8244AD15C244A12F803B0244A5A
:1044E00012F80390234AD45C5FFA80F8224F4046CA
:1044F000FFF740FA8DF807009DF80730594640460F
:104500003B80FFF737FA8DF8070049469DF80730E2
:1045100040463A881B0203F470631343AAF8003044
:104520003B80FFF727FA8DF8070021469DF80730FA
:1045300040463B80FFF71EFA8DF807009DF80730D4
:104540003A881B0203F4706313433B803380AB78DB
:104550000133AB7003B0BDE8F08FA146A3462146FE
:10456000C2E700BFF8310020A1F50008ABF5000854
:10457000B5F50008BFF50008F63100200122A4219E
:10458000C0B2FFF7E7B90022A421C0B2FFF7E2B939
:10459000FFF7F9BF7047000010B5054CC820FFF7C2
:1045A000FDF923781BB9FFF7CFF90123237010BD64
:1045B000F8310020002313B50C46C0B201218DF85C
:1045C0000730FFF7D7F98DF807009DF80730236013
:1045D00002B010BD2DE9F3411F461C4B002490464C
:1045E0005B788DF807408B422DD90929C5B296BF5B
:1045F000174A2346174B284697BF565C26465B5CF6
:10460000154A98BF545C1946FFF7B4F98DF80700B6
:104610009DF807102846089B890919603146FFF765
:10462000A9F98DF807009DF8073021462846C8F8FB
:104630000030FFF79FF98DF807009DF80720120959
:1046400002F004023A6002B0BDE8F081F8310020C7
:10465000D3F50008C9F50008DDF500087047000033
:10466000084B10B5044618684FF47A73B0FBF3F0AA
:1046700000F09CF8002221464FF0FF3000F044F893
:10468000002010BD58000020074A032008B5136819
:1046900043F40073136000F025F80020FFF7E0FFFB
:1046A000FFF7DCFF002008BD003C0240024A13680F
:1046B00001331360704700BF08340020014B1868B5
:1046C000704700BF0834002013B50190FFF7F6FFD4
:1046D0000446FFF7F3FF019B001B9842F9D302B099
:1046E00010BD0000074A0002D36800F4E06023F424
:1046F000E0631B041B0C43F0BF6343F4003303432C
:10470000D360704700ED00E0194B30B5DC68C4F3AE
:104710000224C4F10703251D042B28BF0423062D02
:104720004FF001058CBF033C002405FA03F3002879
:1047300003F1FF3301EA030101FA04F105FA04F47D
:1047400004F1FF3402EA040242EA01024FEA0212D3
:1047500005DA00F00F00D2B2064B1A5430BD00F15A
:104760006040D2B200F5614080F8002330BD00BF48
:1047700000ED00E014ED00E04209012300F01F000D
:1047800003FA00F0014B43F82200704700E100E01B
:104790004309012200F01F00203302FA00F0024A10
:1047A00042F82300704700BF00E100E00138B0F19B
:1047B000807F0AD2064BF021064A5860002082F81A
:1047C0002310072298601A6070470120704700BFCD
:1047D00010E000E000ED00E04378114A93600378B8
:1047E000E3B14368D360C37A017B1B0643EA0173DC
:1047F00001780B43817A43EAC143417B43EA814319
:10480000817B43EA4143C17B43EA0143417A43EA66
:104810000123017A43EA410313617047D360FBE748
:1048200090ED00E003681821DAB223F47F73103AA8
:1048300023F00303B2FBF1F20449032A895C88BF29
:104840000433C1658365806D704700BFE7F50008DC
:1048500038B50446FFF732FF0546002C74D000231C
:10486000226884F83430022384F83530136823F04A
:104870000103136021680B68D8073ED40B683348E6
:1048800062681840A3681343E26813432269134324
:1048900062691343A2691343E2691343226A134313
:1048A000626A042A43EA000301BFE26A206B024302
:1048B00013430B602168626A4B69042A23F00703E3
:1048C00043EA02030BD1A26AA069134300BB012A89
:1048D0002ED001D3022A02D1E26AD2012CD44B613C
:1048E0002046FFF79FFFE26D3F2393408360002047
:1048F0000123606584F8353038BDFFF7DFFE401BCB
:104900000528B7D920230320636584F8350038BD16
:10491000B0F5005F14D1032AE1D801A050F822F0CD
:1049200039490008D94800083949000831490008C8
:10493000E26AB2F1C07FD2D1402301206365E4E78F
:10494000022AF9D9032AC6E7012038BD3F8010F0BA
:1049500038B5054620B390F83540E4B2022C1DD09E
:1049600002680024136823F0010313602122036806
:104970001C6003685C6003689C600368DC6003681B
:104980001C6103685A61FFF74DFFEA6D3F239340B6
:1049900083606C6585F8344085F83540204638BD25
:1049A000012038BD70B50446856DFFF787FE0646C9
:1049B00094F83530022B06D0802301206365002354
:1049C00084F8343070BD2268136823F01603136036
:1049D0002268536923F080035361236C0BB9A36CE5
:1049E00023B12268136823F0080313602268136858
:1049F00023F0010313602368186810F0010009D147
:104A0000E26D3F239340AB60012384F8340084F8C7
:104A1000353070BDFFF752FE801B0528EBD92023EF
:104A200003206365002384F8350084F8343070BDBA
:104A3000F0B50668234D746C95FAA5F5B5FA85F5C1
:104A400004F04044059FAB403C4323437364036838
:104A5000DA6343680268B3F5403F30D186681EB11F
:104A6000012E03D121F07F419163F0BD022E01F4AC
:104A70007F0301F47F45CCB207D1D90CAD0AC9023E
:104A800041EA451141EAD401EEE7032E01F07F40EF
:104A90000AD1DB0CED0A9B02C10F43EA451343EA3E
:104AA000D40343EAC131DFE7190D2D0B0902030FCF
:104AB00041EA051141EA141141EA0331D4E7D1601A
:104AC000F0BD00BF0000FF3F704710B5044640B383
:104AD00090F8393003F0FF021BB980F83820FFF757
:104AE000F3FF226802236168002084F839301368DC
:104AF00023F440330B4313602268A168536B23F007
:104B000007030B4353632268E168136C23F47F535C
:104B100023F03F030B4313640123E06384F839302F
:104B200010BD012010BD704773B590F838400546A0
:104B3000012C4FF0020414D080F839400126069C65
:104B400080F838600094FFF773FF2A68002013682C
:104B500043F40C5313602A6813683343136002B0A4
:104B600070BD2046FBE773B515461A4690F83830FD
:104B70000446012B4FF0020317D080F8393001268C
:104B8000036880F838605D61079B0093069BFFF720
:104B90004FFF22680020136843F40C53136022680F
:104BA00013683343136002B070BD1846FBE738B595
:104BB00002680446136823F0050343F004031360FE
:104BC000FFF77CFD05462368186810F0010009D145
:104BD0001A6822F40C521A60012384F8380084F811
:104BE000393038BDFFF76AFD401BB0F57A7FEAD94E
:104BF000E36B032043F02003E363002384F83900D0
:104C000084F8383038BD70B50568012904462A6833
:104C100042F004022A6012BF2435036803F11C0528
:104C2000FFF74CFD0646286810F020000AD12268E4
:104C3000136823F464531360012384F8380084F864
:104C4000393070BDFFF73AFD801BB0F57A7FEAD9A5
:104C5000E36B032043F02003E363002384F839006F
:104C600084F8383070BD000010B5044608B9012042
:104C700010BD174B1B6B190215D42046FFF753FFCD
:104C800000202368186023681861236898612368EE
:104C9000D8612368586223685863E06384F8380059
:104CA00084F8390010BD0368196811F0010104D0BF
:104CB000FFF77DFF0028E0D0D9E75A6A920602D5B7
:104CC000FFF7A1FFF6E7DB699B06D6D50121F7E7E1
:104CD00000380240F0B590F83830012B4FF0020355
:104CE00030D00C01012280F839304FF440330519DF
:104CF00080F83820EE6993FAA3F3B3FA83F22B6AB3
:104D000093406A6A3343093E012E1DD802F07F4268
:104D100013430668194FF9B9726A3A401343736234
:104D2000036882699A61C369093B012B04D8436A0D
:104D3000026823F07F439362012380F83930002317
:104D400080F838301846F0BD4FF07F4696FAA6F648
:104D5000B6FA86F6B240DBE7F2693A401343F361F4
:104D60000319026899691161DB69093B012BE3D8DA
:104D70006B6A026823F07F431362DDE7F0FFFC00FB
:104D80002DE9F74F00236E4ADFF8C0B1DFF8C0A16C
:104D9000DFF8C0E14FF0010C0C680CFA03FC0CEAE0
:104DA0000404A44540F0B3804D6825F01005022DA1
:104DB00014D14FEAD30803F007090F2600EB880847
:104DC0004FEA8909D8F8205006FA09F625EA0606BE
:104DD0000D6905FA09F53543C8F820504FEA430834
:104DE0004FF003094D6809FA08F9066805F0030554
:104DF0006FEA090905FA08F506EA09063543056070
:104E00004E6826F01006013E012E11D88568CE6846
:104E100009EA050506FA08F62E438660456825EA84
:104E20000C0C4D68C5F300159D4045EA0C05456026
:104E3000C56809EA05098D6805FA08F545EA090516
:104E4000C5604D68ED0062D53E4D03F0030C3D4E4C
:104E50004FF00F086D6C4FEA8C0C45F4804575647B
:104E6000756C23F0030606F1804605F4804506F5CF
:104E70009C360195019D08FA0CF5D6F8089029EAB0
:104E80000508314DA84249D005F58065A84247D0B4
:104E900005F58065A84245D0584545D0504545D0D8
:104EA000704545D005F58055A84243D005F580658D
:104EB000A84241D005F58065A8423FD005F5806540
:104EC000A8420CBF09250A2505FA0CF545EA080594
:104ED000B560E6434F681568FF034CBF2543354076
:104EE00015604F685568BF034CBF2543354055607A
:104EF0004F689568FF024CBF2543354095604F6869
:104F0000D568BF0254BF06EA05042C43D4600133C0
:104F1000102B7FF43FAF03B0BDE8F08F0025D3E73F
:104F20000125D1E70225CFE70325CDE70425CBE70F
:104F30000525C9E70625C7E70725C5E70825C3E70F
:104F4000003C01400038024000000240000C0240DA
:104F500000100240001402400AB181617047090448
:104F6000FBE7436959404161704703689A699107BB
:104F700001D500229A6203689A69D20703D49A691C
:104F800042F001029A61704730B50568C1F309012A
:104F9000039C6868234320F07F70194320F4593044
:104FA00041EA024120F47F7020F003000143696070
:104FB00030BD2DE9F041069F0446884616461D4641
:104FC0002268936938EA03030CBF01230023B3422C
:104FD00002D00020BDE8F0816B1CF2D055B920232F
:104FE000032084F84130002384F8423084F84030B4
:104FF000BDE8F081FFF762FBC01B8542E0D2EEE71F
:1050000070B5036804460D461646986910F0100006
:1050100012D170BD691C10D04DB92023032084F833
:105020004130002384F8423084F8403070BDFFF7EF
:1050300045FB801B8542F0D3236899698A06E9D530
:10504000102220252046DA612368DD61FFF78DFFFD
:1050500022680120536823F0FF7323F48B3323F479
:10506000FF7323F00103536004236364002384F877
:10507000415084F8403084F8423070BD70B5044629
:105080000D46164623689B699B0701D5002070BD1D
:10509000324629462046FFF7B3FFB0B96A1CF1D06B
:1050A0006DB9636C032043F020036364202384F80C
:1050B0004130002384F8423084F8403070BDFFF75F
:1050C000FDFA801B8542DDD2EBE7012070BDF7B50C
:1050D0001F464FF400530446099E009315464FF0B7
:1050E0008073FAB2FFF750FF324608992046FFF767
:1050F000C5FF28B1636C042B10D1012003B0F0BDB3
:10510000012F23680CD1EDB20022802120469D6240
:10511000089B0096FFF74DFF0028EFD00320EDE736
:105120002A0A089920469A623246FFF7A7FF00280C
:10513000E0D12368E7E7F7B51F464FF40053044674
:10514000099E009315460023FAB2FFF71DFF324671
:1051500008992046FFF792FF28B1636C042B10D109
:10516000012003B0F0BD012F23680CD1EDB2002265
:10517000402120469D62089B0096FFF71AFF0028F9
:10518000EFD00320EDE72A0A089920469A623246BA
:10519000FFF774FF0028E0D12368E7E770B5044605
:1051A0000D46164623689B699B0601D5002070BDFD
:1051B000324629462046FFF723FFA0B96DB9636C3C
:1051C000032043F020036364202384F8413000234C
:1051D00084F8423084F8403070BDFFF76FFA801BCE
:1051E0008542DFD2EBE7012070BD704710B5044661
:1051F00000284ED090F8413003F0FF021BB980F830
:105200004020FFF7F2FF2268242384F8413013681E
:1052100023F00103136094E80C0023F07063136122
:105220002268936823F400439360A36843B1E26863
:10523000012A22680CBF43F4004343F40443936003
:10524000E368022B03D123684FF400625A6022689E
:105250000020536843F0007343F4004353606169D6
:10526000236922680B43A16943EA0123D360E36900
:10527000216A22680B4313602268136843F001031C
:1052800013602023606484F84130206384F8420076
:1052900010BD012010BD704710B5044698B10268DA
:1052A000242380F84130136823F001031360FFF7D3
:1052B000F2FF0020606484F8400084F8410020631D
:1052C00084F8420010BD012010BD2DE9F04F9B462F
:1052D00090F8413085B00446202B0F460392BDF86C
:1052E0003CA0DDF8409040F0A7800E9B1BB9012048
:1052F00005B0BDE8F08FBAF1000FF8D090F840305B
:10530000012B00F09980012580F84050FFF7D6F975
:105310001923009006462A464FF400412046FFF725
:1053200048FE8046D0B9212360630196394684F84F
:1053300041304023CDF8009084F842300E9B6064E9
:10534000204663625B46A4F82AA0039AFFF7BFFEDB
:1053500030B1636C84F84080042BC8D00320C7E7C9
:10536000638D9BB2FF2B10D9FF224FF0807300900A
:10537000228539462046FFF707FE32464946204639
:10538000FFF77CFE48B1636CE6E7628D4FF0007377
:10539000009092B22285D2B2EBE7636A2268591C70
:1053A00061621B789362638D228D013B013A9BB24F
:1053B00092B263852285BAB9638D9BB2A3B1009680
:1053C0004B4680212046FFF7F4FD0028C6D1638DAF
:1053D0009BB2FF2B28D9FF224FF0807300902285CB
:1053E00039462046FFF7D0FD638D9BB2002BC4D118
:1053F000324649462046FFF7D1FE0028C3D1236834
:105400002022DA6121684B6823F0FF7323F48B3389
:1054100023F4FF7323F001034B6084F8412084F8E8
:10542000400084F8420063E7628D4FF00073009003
:1054300092B22285D2B2D3E7022059E72DE9F04F8C
:105440009B4690F8413085B00446202B0F460392CE
:10545000BDF83CA0DDF8409040F0AD800E9B1BB93C
:10546000012005B0BDE8F08FBAF1000FF8D090F838
:105470004030012B00F09F80012580F84050FFF75D
:105480001DF91923009006462A464FF40041204694
:10549000FFF78FFD8046D0B922236063019639461D
:1054A00084F841304023CDF8009084F842300E9BC0
:1054B0006064204663625B46A4F82AA0039AFFF763
:1054C0003AFE30B1636C84F84080042BC8D00320CE
:1054D000C7E7638D9BB2FF2B46D94FF41053FF22D1
:1054E00000934FF08073228539462046FFF74CFD2C
:1054F00000964B46002204212046FFF75AFD002863
:10550000E5D1636A5A1C62622268526A1A70228D5F
:10551000638D013A013B92B29BB222856385BAB991
:10552000638D9BB2A3B100964B4680212046FFF7C6
:1055300040FD0028CBD1638D9BB2FF2B1ED9FF22EB
:105540004FF080730090228539462046FFF71CFDFE
:10555000638D9BB2002BCBD1324649462046FFF7E4
:105560001DFE98B1636CB0E7628D4FF4105392B298
:1055700000934FF000732285D2B2B5E7628D4FF0F1
:105580000073009092B22285D2B2DDE72368202218
:10559000DA6121684B6823F0FF7323F48B3323F423
:1055A000FF7323F001034B6084F8412084F840002E
:1055B00084F8420055E7022053E790F84100704715
:1055C000F0B5D20104684D68E3688432C3F30B433D
:1055D00014441D44636803F47043636003680C68FB
:1055E0009E18DB680134C3F30B43234443EA0543AD
:1055F00073600568CC68EB68C3F30A031C44AB18FE
:105600009D6805F470459D600368DD689E188B6891
:10561000C5F30A0501332B44002543EA0443B36074
:10562000036813441C6924F007041C6103680C69B7
:1056300013441C61046891F83260144491F831708D
:10564000D1F818E0A369A561046891F830301444DA
:1056500043EA0E6343EA072343EA0643A361036870
:1056600013445C6924F0FF045C6103684C691344D3
:105670005C6104681444E36923F4E06323F00703E6
:10568000E3610368CC690E6A13443443DC61036848
:1056900013449C6A9D6203684C6A13449C620B69C4
:1056A000002B2CD0012B2CD09C1E022C2BD9072B8D
:1056B00014BF0124022403681344DD6A05F0E025C9
:1056C000DD6203680E689D184B689B1B8E6A6343FE
:1056D0007443033343EA0443EB6204681444236BCA
:1056E00023F4FF6323F0070323630368C96A1344A9
:1056F000196301688B5843F001038B50F0BD0424FB
:10570000D9E70324D7E70224D5E7704738B5044624
:10571000002875D090F8A13003F0FF021BB980F883
:10572000A020FFF7F2FF2268022384F8A1309369DA
:1057300023F070439361A068636822680343E068C4
:1057400091690343206903430B43936121682D4A08
:105750008B6813408B60216860698B6843EA004363
:10576000A06903438B602168CB681340CB6021683C
:10577000E069CB6843EA0043206A0343CB602168B9
:105780000B6913400B6121680B69606A43EA0043AF
:10579000A06A03430B6121684B691A404A61226881
:1057A000E16A536943EA0143216B0B43536121686A
:1057B00094F83600CA6A94F8355002F07F42CA6203
:1057C000226894F83430D16A0B4343EA052343EA54
:1057D00000430020D3622268536B43F004035363F9
:1057E0002268536B43F0020353632268936943F0CA
:1057F000010393610123C4F8A40084F8A13038BDEB
:10580000012038BD00F800F0F8B590F8A030064649
:105810008E469446012B4FF002001DD03424012700
:105820000D4686F8A10004FB026486F8A0703834A7
:105830000FCD0FC40FCD0FC40FCD0FC42B68304652
:10584000624671462360FFF7BBFE336800205F624B
:1058500086F8A17086F8A000F8BD90F8A100704706
:10586000194B37B51A6C194C42F080521A641B6CF4
:1058700003F080530193019B236843F4803323603A
:10588000FEF71CFF05466368DA030CD5236843F472
:1058900000332360FEF712FF0C4C054663689B0340
:1058A0000AD5002006E0FEF709FF401BB0F57A7F1D
:1058B000E9D9032003B030BDFEF700FF401BB0F56F
:1058C0007A7FEBD9F5E700BF003802400070004056
:1058D000F7B503680446DD073DD42368980700F157
:1058E0008E8023681E0700F1DC8023685D072CD5BD
:1058F000954B964D1A6C42F080521A641B6C03F063
:1059000080530193019B2B6843F480732B60FEF757
:10591000D5FE06462B68DA0540F1E880A2688A4B7E
:10592000012A40F0EA801A6F42F001021A67A36868
:10593000002B00F0F980FEF7C1FE834D064641F2D0
:1059400088372B6F9B0740F1E880A269002A40F05E
:10595000FF80002015E07C4B9A6802F00C02042ABC
:1059600007D09A6802F00C02082A0CD15B68590231
:1059700009D5754B1B689A03AFD56368002BACD172
:10598000012003B0F0BD62686F4BB2F5803F15D1C6
:105990001A6842F480321A60636803B3FEF78EFE21
:1059A000694D064641F288372B689B0395D4FEF774
:1059B00085FE801BB842F7D90320E2E73AB91A689E
:1059C00022F480321A601A6822F48022E3E7B2F5EA
:1059D000A02F1A68F4D142F480221A60D8E7FEF7AB
:1059E0006DFE594D064641F288372B6898037FF5C6
:1059F00074AFFEF763FE801BB842F6D9DCE7524B6A
:105A00009A6812F00C0F07D09A6802F00C02082A6C
:105A100016D15B68590213D44B4B1A68920702D512
:105A2000E268012AACD11868F82292FAA2F2B2FA1E
:105A300082F122698A4020F0F8010A431A6050E797
:105A4000E368414DE3B12B6843F001032B60FEF79F
:105A500035FE06462B689B070CD52968F82393FA78
:105A6000A3F3B3FA83F22369934021F0F8021343BE
:105A70002B6036E7FEF722FE801B0228EAD99BE75F
:105A80002B6823F001032B60FEF718FE06462B68F7
:105A90009F077FF526AFFEF711FE801B0228F6D97F
:105AA0008AE76369284D83B16B6F43F001036B672D
:105AB000FEF704FE06466B6F98073FF516AFFEF73C
:105AC000FDFD801B0228F6D976E76B6F23F00103FA
:105AD0006B67FEF7F3FD06466B6F99077FF505AF21
